:100000000C9477000C949F000C949F000C949F001C
:100010000C949F000C949F000C949F000C949F00E4
:100020000C949F000C949F000C949F000C949F00D4
:100030000C949F000C949F000C949F000C949F00C4
:100040000C94C8180C949F000C94B0170C948A1749
:100050000C949F000C949F000C949F000C949F00A4
:100060000C949F000C949F0003101B1087107811B4
:100070009811B811C0116D110D0A0009206D6F752E
:10008000763A200009206C756D696572653A20002A
:100090000920706F7274653A20000000000024008F
:1000A00027002A0000000000250028002B0004047F
:1000B0000404040404040202020202020303030310
:1000C00003030102040810204080010204081020EC
:1000D00001020408102000000008000201000003D3
:1000E0000407000000000000000041270120112447
:1000F0001FBECFEFD8E0DEBFCDBF12E0A0E0B1E081
:10010000E2E3FAE502C005900D92A03EB107D9F7EF
:1001100027E0A0EEB2E001C01D92AF39B207E1F7CF
:1001200010E0C6E7D0E004C02197FE010E94E62A55
:10013000C537D107C9F70E9409200C940C2D0C94E7
:100140000000CF93DF931F92CDB7DEB7DC01ED91B6
:10015000FC91048CF58DE02D41E050E0BE016F5F15
:100160007F4F0995181619061CF4898190E002C08A
:100170008FEF9FEF0F90DF91CF910895CF93DF9393
:100180001F92CDB7DEB76983DC01ED91FC9102804F
:10019000F381E02D41E050E0BE016F5F7F4F099594
:1001A0000F90DF91CF91089580E00895FB014150B9
:1001B0005109460F571FE417F50778F4208130E006
:1001C000322F22276181260F311D820F931F821744
:1001D000930708F401963296EECFE417F50751F431
:1001E000208130E0322F2227820F931F821793073E
:1001F00008F40196089580E090E00895DC01ED9107
:10020000FC91048CF58DE02D0994CF93DF93EC01E4
:100210008A89882369F09A01AB016E857F850E94E7
:10022000571B2E853F85280F391F3F872E8702C019
:1002300080E090E0DF91CF910895CF93DF93EC01C0
:100240008C859D85892B19F480E090E024C0EA8993
:10025000EE23D1F381E08B8B8E859F8525E0E29F95
:10026000F0011124EA58FC4F938382838C859D858D
:1002700090935A038093590385E00E94780B8091F4
:100280002D0790912E07892BF9F2CE010E960E9430
:10029000D71281E090E0DF91CF9108950F931F93E3
:1002A000CF93DF93EC018B018C859D85892B41F4E5
:1002B00060E070E080E090E00E9467129D878C878C
:1002C000EC85FD85309751F0102701271027158305
:1002D00004832E96D287C18781E001C080E0DF9140
:1002E000CF911F910F910895CF93DF93DC011C965E
:1002F000ED91FC911D973097B1F0EC0115821482BD
:10030000128611861D861C8689890E94B1198889EA
:100310000E94B1198A890E94B1192E9686E0FE01C9
:1003200011928A95E9F7DF91CF910895FC0113822C
:10033000128288EE93E0A0E0B0E084839583A683E8
:10034000B7838BE091E091838083158614863E9677
:1003500086E0DF011D928A95E9F70895EF92FF92FA
:100360000F931F93CF93DF93C82FE0904107F12C99
:10037000FE2CEE248091420790E04497E80EF91E8F
:1003800048E050E06BE477E0C7018C0F911D0E94BC
:10039000D600C13131F000915F07069506950C73C8
:1003A00001C008E010E0A80163E577E00E94D600F4
:1003B000EC010E151F0508F048C0A701401B510BAA
:1003C000B8016E5D7F4F809158030E949E1B8C0187
:1003D0000150110960E08AE00E94E2178AE38EBDB5
:1003E0000DB407FEFDCF20E030E020173107C0F448
:1003F0001EBC0DB407FEFDCF8EB590E0982F882768
:100400001EBC0DB407FEFDCF4EB5840F911DC80F65
:10041000D91FC817D90708F421962E5F3F4FE5CFA3
:100420000217130771F41EBC0DB407FEFDCF8EB585
:1004300090E0982F8827C80FD91FC817D90708F44C
:10044000219661E08AE00E94E217209719F09C2F24
:100450008D2F02C08FEF9FEFDF91CF911F910F91F2
:10046000FF90EF90089544E150E06FE377E080E083
:1004700090E00E94D600009721F0982789279827BE
:1004800008958FEF9FEF0895DF92EF92FF920F9301
:100490001F93CF93DF9390915703892F827091FF21
:1004A00011C02091550330E041E357E060E070E077
:1004B000809158030E94571B809157038D7F809332
:1004C000570319C020912D0730912E0721153105B2
:1004D00019F0C9010E94121980935803882309F466
:1004E00068C020912D0730912E0741E357E060E06E
:1004F00070E00E94571B80917F04882309F451C04B
:10050000E091580385E0E89FF0011124EA58FC4F80
:10051000C081D1812197028113810C0F1D1FCE0153
:100520000E94B41AD82E882321F060E0CE010E94E8
:100530009C1ABE0184E00E94311AB80186E00E9434
:10054000311A8AE0E82EF12C40E86FE180E80E9441
:10055000F41940E86FE180EA0E94F4194AE06CE186
:1005600080EA0E94F41948E06FE180E80E94F419E3
:1005700004E610E08CE10E94761A8A7029F50115D4
:100580001105C9F448E06FE180EA0E94F41981E0A6
:10059000E81AF108C9F6DD2021F06D2DCE010E9488
:1005A0009C1A809158030E94B1191092580381E05F
:1005B0000EC080E00CC0015011096AE070E080E0DC
:1005C00090E00E948218D6CF012B29F7DBCFDF9174
:1005D000CF911F910F91FF90EF90DF9008958F9230
:1005E0009F92AF92BF92CF92DF92EF92FF92CF9302
:1005F000DF9380917F04882309F431C2D0915603A0
:10060000D11166C089E30E94761A90917F049923E4
:1006100009F45CC0882309F459C06091800470918A
:1006200081047B0126E0E20EF11CE11438E0F306C0
:1006300028F07B0149EFE41A47E0F40A80E00E94C9
:10064000311A60E08AE30E94541A90E0909381048A
:100650008093800460E08AE30E94541A2091800411
:1006600030918104382B309381042093800460E022
:100670008AE30E94541AC82F60E08AE30E94541A49
:10068000D82E60E08AE30E94541AC82E40E46EE13E
:1006900080E80E94F4196091800470918104C7FE83
:1006A00012C0611558E0750770F4F0928304E0926F
:1006B00082048C2F90E09D29049790938504809369
:1006C0008404DFEF03C08CE00E94311AD0935603FC
:1006D000C0915603CC2309F455C181E080935703A0
:1006E0008C2F0E94D71B90932E0780932D07892B68
:1006F00009F43BC142E650E060E070E08C2F0E94BC
:100700009E1B61E377E00E94D119C0913D07D09113
:100710003E07C830D10509F070C080915603809320
:10072000580380912D0790912E070E9790932E07D6
:1007300080932D0720914B0730914C07E091720375
:10074000F0917303A9014E275F2780916A0390916E
:100750006B0384239523892B09F042C040914D07F8
:1007600050914E076091740370917503DA01A627CA
:10077000B72780916C0390916D038A239B23892B6B
:1007800079F580914F0790915007E817F90771F4B8
:1007900080915107909152076817790739F467E300
:1007A00077E08BE497E00E94F01B1AC080E09BE0AA
:1007B0008830A1F0989FF0011124EA5CFA4F608123
:1007C00071812617370741F46281738146175707F5
:1007D00019F480938E05E3CF8F5FEACF80938E0567
:1007E00081E00E94780B80912D0790912E07892B34
:1007F00009F4B7C00E944E1CB2C0C83086E0D807CA
:1008000009F0AFC080912D0790912E0710922E070E
:1008100010922D078A9708F49CC08091450790910B
:100820004607811521E0920729F08115924009F4CD
:1008300074C08FC020915707309158078091720380
:10084000909173032817390709F083C02091590745
:1008500030915A07809174039091750328173907D6
:1008600009F077C067E477E08DE497E00E94F01B21
:1008700080E092E0909346078093450786E0E7E4A6
:10088000F7E0A1E5B7E001900D928A95E1F786E0E7
:10089000EFE8F5E0A7E4B7E001900D928A95E1F763
:1008A00086E0EFE8F5E0A7E3B7E001900D928A95C6
:1008B000E1F786E0E1E5F7E0A1E3B7E001900D9212
:1008C0008A95E1F780914D0790914E0790935807D4
:1008D0008093570780914F079091500790935A0744
:1008E00080935907809172039091730390934E0700
:1008F00080934D07809174039091750390935007F6
:1009000080934F07D0933E07C0933D078AE290E063
:1009100090932E0780932D071CC02091570730918C
:10092000580780917203909173032817390789F44F
:100930002091590730915A07809174039091750363
:100940002817390731F467E477E08DE497E00E94D7
:10095000F01B80912D0790912E07892B11F00E949A
:10096000440280915603882369F08091570380FFE9
:1009700009C060918004709181048CE00E94311A5A
:10098000109256030E94BC186B017C018091950562
:1009900090919605A0919705B09198054601570151
:1009A000881A990AAA0ABB0AC5EBD4E0D0935D0362
:1009B000C0935C03B7FC02C082E013C0209719F11A
:1009C000EC8DFD8D3097D1F085859685A785B08912
:1009D000A7019601281B390B4A0B5B0B57FD13C06F
:1009E00083E00E94780B80912D0790912E07892B30
:1009F00051F00E944E1C0E94440205C08D859E85C8
:100A0000AF85B889E5CF6E9635E0CD32D30771F664
:100A1000B7FC25C04AEFC40ED11CE11CF11CC092EA
:100A20009505D0929605E0929705F0929805C7E853
:100A3000D4E0D0935A03C093590385E00E94780B09
:100A400080912D0790912E07892B21F089859A8519
:100A50000E94D7122B9654E0C33BD50751F7DF9184
:100A6000CF91FF90EF90DF90CF90BF90AF909F908D
:100A70008F900895EF92FF920F931F93CF93DF9380
:100A80007C01EB018A010E94EF02F7018189882332
:100A900059F1A80160E070E00E949E1B8C01BE012C
:100AA0000E94D119F701C1898C2F0E94D71B801792
:100AB000910731F48C2F0E94B119F701118A12C0ED
:100AC00085E0C89FF0011124EA58FC4F8081918194
:100AD000800F911F9183808382819381801B910B72
:100AE00093838283C80102C080E090E0DF91CF91C0
:100AF0001F910F91FF90EF900895CF93DF93EC013A
:100B00000E94EF028989DF91CF910C94D71BCF937C
:100B1000DF93EC010E94EF02898981110E94B119D3
:100B20008889898B188ADF91CF910C94D71BCF923B
:100B3000DF92EF92FF920F931F93CF93DF9300D03A
:100B400000D0CDB7DEB78C016B017A010E94EF02B5
:100B5000F60182819381A481B581892B8A2B8B2B0D
:100B6000D1F0E114F104B9F0228133813A83298371
:100B7000848195819C838B83D8011C96ED91FC9197
:100B80001D977E2D6F2D309729F1778366833183F2
:100B9000208393838283D8011C968D919C911D970D
:100BA000892BA9F052968C91811111C086E096E0B4
:100BB0000E941219F801828B2AE230E037872687DB
:100BC00021E090E0811101C020E0822F15C080E07B
:100BD00090E012C0CE0101960E946712D8011D96C6
:100BE0009C938E931C97009791F39801225F3F4F3F
:100BF000FC0132872187CFCF0F900F900F900F907D
:100C0000DF91CF911F910F91FF90EF90DF90CF90E8
:100C100008956F927F928F929F92AF92BF92CF92E0
:100C2000DF92EF92FF920F931F93CF93DF93CDB795
:100C3000DEB7E5970FB6F894DEBF0FBECDBF4C010F
:100C40007B013A010AE712E01A8309831B821C82A6
:100C50001D821E82CE0109960E9496011AA709A73D
:100C60001BA61CA61DA61EA680917F06909180063D
:100C7000A0918106B09182068F8F98A3A9A3BAA3F1
:100C80008B839C83AD83BE8318861F82F701D701B7
:100C90008D91882331F08E32D9F380538A30C0F39E
:100CA00035C020E030E080E090E05AE041914423FC
:100CB00009F18430910554F54E3279F42F3F310516
:100CC00009F024F5ABE2B0E0AC0FBD1FA80FB91FCF
:100CD0002C93019620E030E0E9CF529FB001539F62
:100CE000700D1124242F440F330B20533109260F8C
:100CF000371FDCCF2F3F310509F044F484309105D4
:100D00002CF4FE01E80FF91F23A715C24B815C816B
:100D10006D817E818091850690918606A0918706DF
:100D2000B0918806481759076A077B0709F436C24D
:100D30000E94BC186F7077277C5FCE0109960E94D5
:100D40004E01813009F02DC28AE792E09E8F8D8F8F
:100D50008B819C81AD81BE818F8F98A3A9A3BAA3FB
:100D600045E350E0BE01635E7F4FCE0109960E94CD
:100D70009705892B19F400E010E0D6C10E94BC1839
:100D800078876F8342E050E0BE01695F7F4FCE01FC
:100D900009960E94050181E090E09E8F8D8F42E0D0
:100DA00050E0BE01635E7F4FCE0109960E940501AF
:100DB00080E091E09E8F8D8F42E050E0BE01635E47
:100DC0007F4FCE0109960E9405011E8E1D8E42E0C6
:100DD00050E0BE01635E7F4FCE0109960E9405017F
:100DE00042E050E0BE01635E7F4FCE0109960E9453
:100DF000050142E050E0BE01635E7F4FCE010996DF
:100E00000E9405016701D7018C91882311F18601A9
:100E10007801F70181915F01882321F08E3211F072
:100E20008501F6CF0C191D091016110684F40FA7C1
:100E300041E050E0BE01615D7F4FCE0109960E9406
:100E40000501A801B601CE0109960E9405016501C0
:100E5000DACF1FA641E050E0BE01615D7F4FCE01B9
:100E600009960E94050100E011E01E8F0D8F42E0FF
:100E700050E0BE01635E7F4FCE0109960E940501DE
:100E80001E8F0D8F42E050E0BE01635E7F4FCE01AA
:100E900009960E940501CE0109960E941D01892B29
:100EA00009F469CF83E0E82EF12C0E94BC185B01A5
:100EB0006C01CE0109960E94870518161906ACF040
:100EC0000E94BC18DC01CB018A199B09AC09BD0941
:100ED00089389341A105B10508F015C162E370E0BE
:100EE00080E090E00E948218E4CFAB80BC80CD808F
:100EF000DE80BE01675F7F4FCE014D960E94B80A2B
:100F00008F8D98A1A9A1BAA1A816B906CA06DB06B9
:100F100009F0FCC0CE0109960E94A80AC59709F005
:100F2000F5C0CE0109960E947D050C970CF4F1C026
:100F30004CE050E0BE01635E7F4FCE0109960E94F7
:100F4000FE008F8D98A19827892798279CAB8BABA3
:100F50004F8158852D8D3E8D4217530711F497FD13
:100F600007C0CE0109960E94440B0CEF1FEFD3C0BF
:100F70008F709270892B39F0CE0109960E94440B34
:100F80000BEF1FEFC8C0ABA0BCA0BA24AB24BA249F
:100F9000A114B10419F000E010E028C0CE010996B8
:100FA0000E94440B0AEF1FEFB6C041E050E0BE01C3
:100FB000615D7F4FCE0109960E94FE008FA58111D1
:100FC0001EC08FA58111F1CFCE0109960E94A1000C
:100FD000CE0109960E94A100CE0109960E94A100AF
:100FE000CE0109960E94A1000F5F1F4F89A19AA10F
:100FF00098278927982708171907B8F20BC08FA5DB
:101000009FEF980F9FA78823E1F2CE0109960E94D7
:10101000A100F5CFC12CD12C41E050E0BE016B5CAA
:101020007F4FCE0109960E94FE008DA9982F907CDB
:1010300069F4882399F08DA99FEF980F9DAB8823C1
:1010400051F0CE0109960E94A100F5CFCE0109967C
:101050000E94A1001DAA8DA98111DECF42E050E0BF
:10106000BE016F5C7F4FCE0109960E94FE0042E0F8
:1010700050E0BE01615D7F4FCE0109960E94FE00E7
:10108000CE0109960E94A100CE0109960E94A100FE
:10109000CE0109960E94A100CE0109960E94A100EE
:1010A00042E050E0BE016D5C7F4FCE0109960E9488
:1010B000FE0089A99AA98115914031F48FA598A9BC
:1010C0008115914009F452C000E010E08BA99CA961
:1010D0009827892798270817190738F4CE01099609
:1010E0000E94A1000F5F1F4FF1CFEFEFCE1ADE0A73
:1010F000CA14DB0409F090CFCE0109960E94440B7C
:1011000006EF1FEF08C00FEF1FEF05C00EEF1FEF38
:1011100002C00DEF1FEFF1E0EF1AF10829F00F3FC9
:10112000FFEF1F0709F4C1CECE0109960E9474019A
:1011300001301105C9F4D401ED91FC910488F589C1
:10114000E02D8AE792E09E8F8D8F8BA59CA5ADA5A3
:10115000BEA58F8F98A3A9A3BAA3A301BE01635E06
:101160007F4FC40109951FC0C8011DC08BA99CA950
:101170008115944039F0CE0109960E94440B07EF87
:101180001FEFC9CF44E050E0BE01655D7F4FCE0147
:1011900009960E94FE0001E010E0BDCF8EEF9FEFA8
:1011A00002C080E090E0E5960FB6F894DEBF0FBE77
:1011B000CDBFDF91CF911F910F91FF90EF90DF9006
:1011C000CF90BF90AF909F908F907F906F90089539
:1011D000CF92DF92EF92FF920F931F93CF93DF9303
:1011E000A0915C03B0915D035C96CD91DC915D971D
:1011F00060915B032097A1F566FF7AC0E0EEF2E014
:1012000080E090E02081211125C041E1489F9001BC
:10121000499F300D1124E901C052DD4FAD01455BFE
:10122000544055954795EFEEFEEE4E9FC0014F9FFF
:10123000900D5E9F900D1124806188832F513D4F4A
:1012400080E1F90111928A95E9F75D96DC93CE93DE
:101250005C9706C0019671968430910599F648C056
:1012600061FF07C080912D0790912E07892B09F00F
:1012700055C0888187FF0EC08F77888380915B037C
:10128000826080935B03E0915C03F0915D03818D4C
:101290008F7E818F80915B03982F9071D92E84FF70
:1012A0007DC07E01E6E0EE0EF11C6E01FBE0CF0E8C
:1012B000D11CF70180810E94B119F70111927F01C1
:1012C000EC15FD05B1F78981882309F46AC0E09126
:1012D0005C03F0915D03848195819F838E83888177
:1012E00080648883E0915C03F0915D03158E148E19
:1012F000E12CF12CB70180912F07909130070E94CB
:101300007D1DF0922E07E0922D07DF91CF911F9166
:101310000F91FF90EF90DF90CF90089588818076B5
:1013200009F0A7CF6E01F12CF6018181811122C055
:1013300020912D0730912E072115310519F0C90193
:101340000E941219F60181838823A1F000912D07D4
:1013500010912E0720912F073091300721533740ED
:101360004091560360E070E00E94251BF4E0FF12FC
:1013700080CF0CC0F3942FEFC21AD20A35E0F312DB
:10138000D3CF809157038E7F80935703E0915C0306
:10139000F0915D03818D8061818F6BCF87FF03C0EA
:1013A00080CF18829FCF80FF0DC08E810E94B1191F
:1013B000FE013696CE010A9621812193E817F9079E
:1013C000D9F71A8680915B038C7009F441C08E8135
:1013D0008823F1F19F8191110FC0EB84FC84E1140B
:1013E000F10409F485CF25E0829FF0011124EA5829
:1013F000FC4FF382E28206C00E94D71B7C01892B3E
:1014000009F476CF80912F07909130078153974050
:1014100080935503F701E80FF11DCF01EF2B19F071
:101420000E941219D82ED0925803DD2009F462CF01
:101430006091550370E0870120E030E04E818D2DF2
:101440000E94251B8091570382608093570352CFDF
:10145000888185FF4DCF8E8181110BC01882E0916C
:101460005C03F0915D03158E148E80E180935B0325
:101470003FCFE0915C03F0915D03818D8061818FAE
:1014800037CFAF92BF92CF92DF92EF92FF920F933E
:101490001F93CF93DF9300D000D000D0CDB7DEB73D
:1014A0006C01FC0101900020E9F731977F01E81AF7
:1014B000F90A85E996E00E94A80A8C0165E976E0C0
:1014C000CE0101960E94B80AA801BE016F5F7F4F4E
:1014D00085E996E00E94970504E010E0892BE9F485
:1014E00001501109D1F06AE070E080E090E00E94C4
:1014F000821885E996E00E94A80A5C0165E976E019
:10150000CE0101960E94B80AA501BE016F5F7F4F10
:1015100085E996E00E949705E1CFA701B60185E92C
:1015200096E00E94050185E996E00E941D0126963D
:101530000FB6F894DEBF0FBECDBFDF91CF911F91E4
:101540000F91FF90EF90DF90CF90BF90AF900895F4
:10155000DC011C96ED91FC911D97309731F086814E
:101560009781982789279827089580E090E008952B
:10157000CF93DF93FC01EB01AC85BD85109791F013
:1015800012969C91129713968C9113973C911196F9
:101590002C914AE752E05183408332832383948322
:1015A000858308C08AE792E0918380831282138248
:1015B00014821582CF01DF91CF910895EF92FF92AF
:1015C0000F931F93CF93DF93E0915903F0915A0348
:1015D000C185D285209709F450C0E0905B03E1FEFD
:1015E00031C0FA80F1102EC08091530790915407BA
:1015F0009783868380914B0790914C0791838083DA
:1016000080914D0790914E07938382838091570775
:1016100090915807982789279827089719F00E94D2
:101620001219F82EFA82FF2069F08F2D0E94D71B25
:101630008C012AE230E04091560360E070E08F2D8B
:101640000E94251BE3FE19C08D818823B1F08C8197
:10165000809358038AE280935503688179816A52A6
:10166000710980912F0790913007DF91CF911F91E1
:101670000F91FF90EF900C947D1DDF91CF911F9102
:101680000F91FF90EF900895CF93DF93EC010E94AC
:10169000EF0289890E94B119198ADF91CF910895CB
:1016A0000F931F93CF93DF931F92CDB7DEB78C01BB
:1016B0000E94EF02F8018189882391F041E050E017
:1016C00060E070E00E949E1B8C01BE016F5F7F4F47
:1016D0000E94D1190130110519F4898190E002C0EE
:1016E0008FEF9FEF0F90DF91CF911F910F91089592
:1016F000EF92FF921F93CF93DF93843009F4F0C1F0
:10170000C0915C03D0915D0327E637E0309330074A
:1017100020932F0730932A0720932907833059F409
:10172000898D8F70833009F0C6C688899989892B85
:1017300009F0C1C67EC0823009F07FC08091690384
:101740008F5F80936903811113C0809168038F5F5D
:101750008093680381110CC0809167038F5F809331
:101760006703811105C0809166038F5F80936603D4
:1017700010922E0710922D0710922C0710922B0713
:10178000898D982F9D7F953041F48A8D8F5F8A8F48
:10179000883709F090C6198E8EC6882309F48BC647
:1017A00028893989232B09F440C09A8D2FEF290FFE
:1017B0002A8F911180C69B8D983031F02FEF280F22
:1017C000223048F4953039F4198E80E880935B0319
:1017D0000E94E80829C5953038F423E0092E01C09D
:1017E000220F0A94EAF701C020E32A8F9F5F9B8FA4
:1017F0008F708330A1F048F4813009F44EC38230F9
:1018000009F059C6109260074BC3863009F4A9C489
:10181000883009F4A6C4843009F04DC6A2C484E01F
:1018200080935B030E94E80831C58F70833009F014
:1018300042C688E080935B03ECC4853019F5E091E3
:101840005903F0915A0384819581892B09F433C699
:1018500010925D0310925C038BE597E09093300744
:1018600080932F0790932A078093290710922C07C3
:1018700010922B0710922E0710922D0788E080936C
:101880005B032CC180913F07853409F014C6C091D9
:101890004107D0E0DC2FCC2780914207C80FD11D33
:1018A00080912D0790912E078C179D0708F403C691
:1018B000D0932E07C0932D07809145078F7309F0B1
:1018C000FAC5109146071111F6C5E0907203F09029
:1018D0007303E114F10439F480917403909175035A
:1018E000892B09F442C08091480720914F0730911D
:1018F0005007813151F52F3F4FEF340739F4809174
:10190000510790915207019609F471C080916A03C2
:1019100090916B03809590958E299F292817390700
:10192000A1F480916C0390916D0380959095409106
:10193000740350917503842B952B4091510750915E
:1019400052074817590709F452C0E216F30609F086
:10195000B2C5209151073091520780917403909144
:1019600075032817390709F0A6C50E9433020196AE
:1019700009F0A1C580914807863009F415C181316D
:10198000B1F1813009F097C580915307883009F093
:1019900092C5109253078091550790915607873F43
:1019A000CFEF9C0710F0099601C008969093560758
:1019B0008093550780914B0790914C079093500767
:1019C00080934F0780914D0790914E079093520757
:1019D00080935107F0924C07E0924B07809174037B
:1019E0009091750390934E0780934D0768C56C974F
:1019F000D0932E07C0932D078BE597E09093300787
:101A000080932F078091590790915A07892B99F459
:101A10002091550730915607409153075091540734
:101A200060914B0770914C07A0914D07B0914E0704
:101A3000E7E8F4E00CC081E10E94AE01019609F0F4
:101A40003AC5E6CF84819581009731F43B9684E0D6
:101A5000E33BF807B8F324C082179307B9F78681F0
:101A60009781009719F08417950781F780819181FC
:101A7000009729F4C281D381CD2B49F416C08F3F42
:101A8000CFEF9C0721F4C281D381219671F0861794
:101A90009707E1F682819381A817B907B9F605C0C7
:101AA000F0935A03E093590306C5F0935A03E09369
:101AB000590310925D0310925C0382E080935B03F4
:101AC0008BE597E09093300780932F0790932A0738
:101AD0008093290710922C0710922B070E94DE0A90
:101AE00080912B0790912C07009709F4E4C49C0186
:101AF000245E3F4F30932E0720932D0730934107EC
:101B000020934207E0915903F0915A0320852093D6
:101B1000470721E1209348070896982789279827A7
:101B2000909358078093570710925A0710925907BD
:101B30008481958190935407809353078681978180
:101B40009093560780935507809172039091730389
:101B500090934C0780934B07809174039091750389
:101B600090934E0780934D07808191819093500709
:101B700080934F07828193819093520780935107FE
:101B800087E697E09093300780932F0781E10E94CA
:101B9000AE0180959095009711F48FEF9FEF909391
:101BA0005A078093590764C486E00E94AE010196EB
:101BB00009F081C420915507309156078091530751
:101BC0009091540760914B0770914C07E0914D073D
:101BD000F0914E07C5EBD4E0498D4423A9F0AC81C8
:101BE000BD812A173B0781F4AE81BF818A179B070D
:101BF00059F4A881B9816A177B0731F4AA81BB81A6
:101C0000EA17FB0709F463C16E9645E0CD32D407AD
:101C100019F7809160078F738230E1F43093650388
:101C20002093640380E0843099F0E82FF0E0EE0F19
:101C3000FF1FE35DFA4F408151818F5F2417350705
:101C400091F71092350580E0C0E0D0E09EE17CC0C5
:101C5000809335058091600782FD2DC484E18093D7
:101C6000600788E290E090932E0780932D0780E52F
:101C700080935F0730915A0780915E0780935A07DF
:101C80002091590780915D078093590720935D0744
:101C90009091580780915C078093580790935C0758
:101CA000809157078093350540915B074093570714
:101CB00080935B073F5F30935E0731110DC02F5F4C
:101CC00020935D07211108C09F5F90935C079111DD
:101CD00003C08F5F80935B078091530790915407F7
:101CE00090936503809364032091550730915607C4
:101CF00030935407209353079093560780935507CA
:101D000080914B0790914C079093500780934F0719
:101D100080914D0790914E07909352078093510701
:101D2000809172039091730390934C0780934B07BB
:101D3000809174039091750390934E0780934D07A3
:101D40007BC3473099F08F5F8430F1F0282F30E06B
:101D5000929FF001939FF00D1124EB54FB4F418DA6
:101D60004111EFCF80933505EF0110C0209721F08E
:101D7000528D4A8D451738F7929FE001939FD00D01
:101D80001124CB54DB4FDFCF80933505209709F426
:101D900092C3D0935D03C0935C0383E08A8F888FE6
:101DA0001E8A84E08F8B1B8E809155079091560779
:101DB0009D838C8380915307909154079F838E83DA
:101DC00080914B0790914C079983888380914D07B0
:101DD00090914E079B838A8381E0898F809166036F
:101DE0008C87809167038D87809168038E878091AF
:101DF00069038F8781E090E0998B888B80915A07E7
:101E00008B87809159078A878091580789878091AD
:101E10005707888781E090E00E94292780915F071B
:101E2000982F907F9135C8F182958F7090E005973B
:101E3000880F991F880F991FE12FF0E0E817F90725
:101E400054F5EF5CF84F26A9222329F1213011F433
:101E50001F5FF2CF2230D1F427A92430B9F41093B8
:101E6000350580AD90E0982F882721AD822B909387
:101E7000650380936403813062E0960710F080E090
:101E800092E09B8B8A8B9D8B8C8B07C027A922238A
:101E900011F0120FD1CF1093350580E180936007C8
:101EA0008091600782608093600782E0809367077B
:101EB00094E0909368078093690710926A078CE218
:101EC00090E090932E0780932D0780E663C2D09315
:101ED0005D03C0935C0310925B0330916007132F86
:101EE000147032FF03C0198E80E2FDC120915F079C
:101EF00022952F70220F220F2093350580912D07F8
:101F000090912E074497821B910990932E078093FE
:101F10002D074F70423021F4232F2F732231C9F047
:101F2000892B19F4832F8370A1F09091570788852E
:101F3000981326C2909158078985981321C29091D1
:101F400059078A8598131CC290915A078B8598135C
:101F500017C234FF49C0688979896115710509F490
:101F600043C0CE010C960E94F32630915B0780910E
:101F70006003381339C020915C07809161032813F6
:101F800033C090915D078091620398132DC08091BA
:101F90005E0740916303841327C03C872D879E878B
:101FA0008F878B8D811119C09E89888D2A8D821B08
:101FB000292F269526952695821B980F9E8B87FDA7
:101FC00081952F89322F36953695231B820F8F8B63
:101FD000969596959695890F888F81E080935B03FF
:101FE000888D8A8F198A188A298DE22FEF708E2F9B
:101FF00090E0FC013197E830F10508F05CC2EC5C40
:10200000FF4F0C94E62A80915B0380FF54C283E06B
:10201000898F80E480935B03198A188A80912D0749
:1020200090912E07009709F4F0C022E420935B03FF
:102030000E942927EAC080915B0380FF61C08091E4
:1020400060078F73823109F05BC080915F07982F22
:10205000907F9135C8F182958F7090E00597880F39
:10206000991F880F991FE12FF0E0E817F90754F541
:10207000EF5CF84F26A9222329F1213011F41F5FCC
:10208000F2CF2230D1F427A92430B9F410933505CA
:1020900080AD90E0982F882721AD822B9093650327
:1020A00080936403813072E0970710F080E092E043
:1020B0009B8B8A8B9D8B8C8B07C027A9222311F0C9
:1020C000120FD1CF1093350583E0898F8091570788
:1020D0008887809158078987809159078A878091DE
:1020E0005A078B8781E090E00E94292782E4809341
:1020F0005B03198A188A10922E0710922D0785C04B
:1021000080E280935B030E94E808198EA3CD809142
:10211000600780FF28C024FD26C088899989892B03
:1021200009F0C9C180912D0790912E0701960E9458
:10213000292780915B03982F906190935B032091F6
:102140002D0730912E07232B19F0826180935B03BA
:102150000E94E80881E090E0998B888B88E0898F65
:102160001B8E81E10EC185FF1CC080916507909197
:10217000660798278927982740912F0750913007A5
:10218000480F591F5093300740932F0740912D0758
:1021900050912E07BA01681B790B70932E0760933C
:1021A0002D0740912D0750912E074115510551F0F3
:1021B00024FD08C090915B03926090935B03CA0179
:1021C0000E9429278091610790E0982F882720910D
:1021D0006207820F911D90936503809364032C899D
:1021E0003D892817390710F0892B21F430936503B6
:1021F0002093640380916403909165039B8B8A8B89
:1022000080915B03837009F456C110922C071092E1
:102210002B070E94E80880915B0385FF07C010929E
:102220002C0710922B07198E84E1ABC084FF0AC0E3
:1022300010922C0710922B0781E090E0998B888BED
:1022400084E08DCF20912B0730912C07211531058B
:10225000E1F080FF02C0198A188A8889998900975D
:1022600081F48A899B898217930720F490932C0725
:1022700080932B0780912B0790912C07998B888B4B
:1022800004C090932C0780932B071B8E8091290705
:1022900090912A079093300780932F0780912B0706
:1022A00090912C07892B59F088899989009739F0EA
:1022B000889690932E0780932D0788E10BC080911C
:1022C0005B0381FFF8C088E290E090932E07809333
:1022D0002D0780E1809360075CC080915B0380FFE5
:1022E000EAC0198E80E180935B030E94E808E3C096
:1022F00080912D0790912E07009711F00E942927B9
:102300009091600780915B0390FF0BC080FF06C037
:1023100087E0898F1A8E198A188A19C086E0898FFA
:1023200016C080FF1EC085E0898F198A188AC3C035
:1023300080912D0790912E07009711F00E94292778
:102340008091600780FF0DC087E0898F1A8E81E041
:1023500090E00E94292780E180935B030E94E808B7
:102360000FC080912D0790912E07892B49F4A3C0AF
:1023700080915B0380FF9FC087E0898F1A8E9BC08E
:1023800080E18093600788E290E090932E0780932D
:102390002D0780E580935F07888580935B0789859B
:1023A00080935C078A8580935D078B8580935E07A9
:1023B0008C85809357078D85809358078E858093F1
:1023C00059078F8580935A0786E0809348078C8150
:1023D0009D8190935407809353078E819F819093A2
:1023E00056078093550780917203909173039093E1
:1023F0004C0780934B0780917403909175039093E1
:102400004E0780934D078881998190935007809360
:102410004F078A819B819093520780935107898D42
:1024200084FF05C0109262071092610705C082E028
:10243000809361071092620780E480934707809140
:102440002D0790912E079093410780934207109299
:10245000660710926507109264071092630786E082
:102460000E94AE01809590959093640780936307D6
:1024700085E480933F071092400710924607109220
:10248000450780915E0390915F03019690935F03EF
:1024900080935E03909343078093440710924A070A
:1024A000109249070E9433028095909590934A07B5
:1024B0008093490704C010922E0710922D071092A6
:1024C0005B03DF91CF911F91FF90EF900895EF9202
:1024D000FF921F93CF93DF93DC012091B3043091DF
:1024E000B4042F5F3F4F21158DE7380710F020E02F
:1024F00030E1522F432FE7E8F4E080E0843041F0F0
:10250000C481D5818F5F3B96C417D507B9F7E9CF52
:102510003093B4042093B30490E08BE09430C1F086
:10252000292F30E011E0190F829FF001839FF00DF9
:102530001124E957FB4FEF012496E480F580EF2842
:1025400029F490933505309731F429C0912FE6CFC7
:102550009093350524C05983488377836683109709
:1025600031F484E0DF011D928A95E9F70BC08D916B
:102570009C9111979183808312968D919C911397D2
:10258000938382838BE0829FD001839FB00D1124BF
:10259000A957BB4F80E418968C93CF0102C080E00E
:1025A00090E0DF91CF911F91FF90EF900895CF932E
:1025B000DF93EC010E944E1C20912D0730912E07D5
:1025C000809157032A32310521F4109258038D7FF0
:1025D00003C01D821C82826080935703DF91CF91DC
:1025E0000C944402EAE9F5E0A089B18982E08C9379
:1025F000A485B5851C92A685B78580E18C93108E45
:10260000A489B58986E08C93A289B3898C91806175
:102610008C93A289B3898C9188608C93A289B389A9
:102620008C9180688C930288F389E02D80818F7D66
:1026300080830895CF92DF92EF92FF920F931F93C2
:10264000CF93DF93CDB7DEB7C254D1090FB6F8945C
:10265000DEBF0FBECDBF8C01FB0182819381A481BF
:10266000B58123968CAF9DAFAEAFBFAF239721E06E
:1026700023962FAF239723964CAD5DAD6EAD7FAD06
:1026800023974BAB5CAB6DAB7EAB89AF9AAFABAF77
:10269000BCAF8DA79EA7AFA7B8AB28AB4DA55EA5D5
:1026A0006FA578A94FA358A769A77AA72EAB4BA906
:1026B0005CA96DA97EA949A35AA36BA37CA38B8FA8
:1026C0009C8FAD8FBE8F2AA74FA158A569A57AA56B
:1026D0004D8B5E8B6F8B788F2CA349A15AA16BA178
:1026E0007CA14F87588B698B7A8B89879A87AB87B8
:1026F000BC870E94BC18DC01CB0186509F4FAF4FB6
:10270000BF4F8093950590939605A0939705B0933E
:1027100098051092830410928204109285041092FE
:10272000840489E091E0E6E7F3E0DF019C011D927B
:1027300021503040E1F781E098E090937703809357
:10274000760361E08AE00E942F1861E08AE00E942F
:10275000E21761E08BE00E942F1861E08DE00E949B
:102760002F1860E08CE00E942F1861E08AE00E9440
:102770002F1861E08AE00E94E21760E08BE00E947F
:10278000E21760E08DE00E94E21780E58CBD8DB518
:1027900081608DBD4FEF60E08FEF0E94F41962E021
:1027A00070E080E090E00E94821862E370E080E0D8
:1027B00090E00E948218109281041092800420E11F
:1027C000E22EF12C6DE180E00E94541A81110BC0C1
:1027D00031E0E31AF10839F06AE070E080E090E05F
:1027E0000E948218EFCF60E070E088E00E94311A0A
:1027F00060E070E08CE00E94311A6FEF77E08AE0D1
:102800000E94311A61EB88E30E94471A6FE370E37C
:1028100088E20E94311A69EF77EF80E30E94311A53
:102820006DE070E080EC0E94311A42E362EC80E8D7
:102830000E94F41962E17CE086EC0E94311A62E1A8
:1028400084EC0E94471A6CED75E08AEC0E94311A04
:10285000D8016C9184EE0E94471AF801618185EEDF
:102860000E94471AD80112966C9182EE0E94471A74
:10287000F801638183EE0E94471AD80114966C9187
:1028800080EE0E94471AF801658181EE0E94471A86
:1028900060E071E080E10E947F1A8FE10E940F1AD0
:1028A00040EC6BE180E80E94F41944E06FE180E8BD
:1028B0000E94F41966E774E084E10E947F1A82E7BF
:1028C0000E94761A8F3F09F0ABC010927F04D801A6
:1028D0008C9180938F0511968C9111978093900520
:1028E00012968C9112978093910513968C91139761
:1028F0008093920514968C91149780939305159666
:102900008C918093940580E0E82FF0E0EE0FFF1F9C
:10291000E35DFA4F118210828F5F8430A9F780E067
:102920009EE1989FF0011124EB54FB4F118E8F5FB5
:102930008430B9F780E094E09093B4048093B304BA
:1029400080E09BE0989FF0011124E957FB4F15822E
:1029500014828F5F8430B1F78093350510928E0515
:102960009BE024E080918E05883070F4989FF00100
:102970001124EA5CFA4FDF01322F1D923A95E9F7F4
:102980008F5F80938E05EECF4D895E898F8921E020
:102990002A8BCF84D888E988FA88CB82DC82ED82C2
:1029A000FE826B857C85E985FA85F0937303E0935D
:1029B0007203709375036093740350936F03409395
:1029C0006E0390E0916090937103809370038FEF9A
:1029D0009FEF90936B0380936A038FEF90E0909347
:1029E0006D0380936C032E838B819C81AD81BE81AE
:1029F00080937F0690938006A0938106B093820611
:102A0000CE5BDF4F0FB6F894DEBF0FBECDBFDF91B8
:102A1000CF911F910F91FF90EF90DF90CF9008958D
:102A200080937F0454CFBC018AE995E00C94A31FE6
:102A30000F931F93CF93DF938C01C0E0D0E0F80198
:102A4000EC0FFD1F6491662341F08AE995E00E9436
:102A5000A016892B11F02196F2CFCE01DF91CF91F4
:102A60001F910F910895CF92DF92EF92FF92CF9333
:102A7000DF936C01990FEE08FF08F7FE1BC06DE2B3
:102A80008AE995E00E94A016EC0144275527BA0177
:102A90004C195D096E097F092AE08AE995E00E94D8
:102AA000B81F8C0F9D1FDF91CF91FF90EF90DF90AB
:102AB000CF9008952AE0B701A6018AE995E0DF9159
:102AC000CF91FF90EF90DF90CF900C94B81F4F9272
:102AD0005F926F927F928F929F92AF92BF92CF92AE
:102AE000DF92EF92FF92CF936B017C019B01AC01CF
:102AF0000E94E12A882319F064ED72E027C04601A4
:102B00005701E894B7F82FEF3FEF4FE75FE7C501B4
:102B1000B4010E94E12A81110DC02FEF3FEF4FE772
:102B20005FE7C501B4010E944A2818161CF468ED3D
:102B300072E00CC02FEF3FEF4FE75FE4C701B60133
:102B40000E94DC2A18169CF46CED72E08AE995E08C
:102B5000CF91FF90EF90DF90CF90BF90AF909F907C
:102B60008F907F906F905F904F900C94A31F2FEFEA
:102B70003FEF4FE75FECC701B6010E944A2887FD8F
:102B8000E3CF20E030E0A901C701B6010E944A2846
:102B900087FF0BC06DE28AE995E00E94A0165C01F8
:102BA000F7FAF094F7F8F09402C0A12CB12C2AE0C7
:102BB00037ED43EA5BE3C701B6010E94C8292B0148
:102BC0003C010E94AD2A6B017C010E944F289B01B1
:102BD000AC01C301B2010E94C7292B013C012AE0CC
:102BE000B701A6018AE995E00E94B81F7C01EA0CB2
:102BF000FB1C6EE28AE995E00E94A016E80EF91E21
:102C0000C3E0C15029F120E030E040E251E4C301CB
:102C1000B2010E94B0282B013C010E94AD2A4B0159
:102C2000A12CB12C2AE0B501A4018AE995E00E940B
:102C3000B81FE80EF91EC501B4010E944F289B0180
:102C4000AC01C301B2010E94C7292B013C01D9CFBD
:102C5000C701CF91FF90EF90DF90CF90BF90AF90E2
:102C60009F908F907F906F905F904F900895FC01A0
:102C7000538D448D252F30E0842F90E0821B930BE1
:102C8000541710F0CF96089501970895FC01918D87
:102C9000828D981761F0828DDF01A80FB11D5D96BE
:102CA0008C91928D9F5F9F73928F90E008958FEF2C
:102CB0009FEF0895FC01918D828D981731F0828DE0
:102CC000E80FF11D858D90E008958FEF9FEF089537
:102CD000FC01918D228D892F90E0805C9F4F821B9B
:102CE00091098F73992708958AE995E00E946816E3
:102CF00021E0892B09F420E0822F0895FC01848DC6
:102D0000DF01A80FB11DA35ABF4F2C91848D90E015
:102D100001968F739927848FA689B7892C93A089F0
:102D2000B1898C91837080648C93938D848D98137A
:102D300006C00288F389E02D80818F7D808308950D
:102D4000EF92FF920F931F93CF93DF93EC0181E0FB
:102D5000888F9B8D8C8D981305C0E889F9898081B7
:102D600085FD26C0F62E0B8D10E00F5F1F4F0F73F1
:102D70001127E02E8C8DE8120CC00FB607FCFACF9D
:102D8000E889F989808185FFF5CFCE010E947E1602
:102D9000F1CF8B8DFE01E80FF11DE35AFF4FF0825A
:102DA0009FB7F8940B8FEA89FB89808180620AC003
:102DB0009FB7F894EE89FF896083E889F98980815B
:102DC0008370806480839FBF81E090E0DF91CF912A
:102DD0001F910F91FF90EF900895CF93DF93EC0137
:102DE000888D8823C9F0EA89FB89808185FD05C02B
:102DF000A889B9898C9186FD0FC00FB607FCF5CF65
:102E0000808185FFF2CFA889B9898C9185FFEDCFAC
:102E1000CE010E947E16E7CFDF91CF91089580E02A
:102E200090E0892B29F00E94741681110C94000007
:102E300008953FB7F8948091250790912607A091B7
:102E40002707B091280726B5A89B05C02F3F19F08A
:102E50000196A11DB11D3FBFBA2FA92F982F88271A
:102E6000820F911DA11DB11DBC01CD0142E0660F75
:102E7000771F881F991F4A95D1F708958F929F92C7
:102E8000AF92BF92CF92DF92EF92FF920F931F9378
:102E9000CF93DF937C01EB016C0182E0C80ED11C63
:102EA0004701E5E08E0E911C00E010E0F601419133
:102EB0006F0150E060E070E02AE0CE010E94B81F90
:102EC0005C01E881F9810190F081E02D6EE2CE0194
:102ED00009958A0D9B1D080F191F8C149D0431F74D
:102EE000F701458150E060E070E02AE0CE010E94E9
:102EF000B81F800F911FDF91CF911F910F91FF900D
:102F0000EF90DF90CF90BF90AF909F908F900895FB
:102F10000E94D32C1F920F920FB60F9211242F9361
:102F20003F934F935F936F937F938F939F93AF9351
:102F3000BF93EF93FF938AE995E00E947E16FF917D
:102F4000EF91BF91AF919F918F917F916F915F9121
:102F50004F913F912F910F900FBE0F901F9018959A
:102F60001F920F920FB60F9211242F938F939F935E
:102F7000EF93FF93E091AA05F091AB058081E0917A
:102F8000B005F091B10582FD12C090818091B3052A
:102F90008F5F8F732091B405821751F0E091B305D4
:102FA000F0E0E656FA4F958F8093B30501C080811B
:102FB000FF91EF919F918F912F910F900FBE0F90E6
:102FC0001F90189590E0FC01EA52FF4F2491FC01FC
:102FD000EE53FF4F3491FC01E255FF4FE491EE2395
:102FE00009F43CC0222339F1233091F038F4213028
:102FF000A9F0223001F584B58F7D12C0273091F001
:103000002830A1F02430B9F4809180008F7D03C076
:10301000809180008F77809380000DC084B58F777A
:1030200084BD09C08091B0008F7703C08091B0004B
:103030008F7D8093B000F0E0EE0FFF1FEC55FF4F47
:10304000A591B4919FB7F894611104C08C9130950B
:10305000382302C0EC913E2B3C939FBF0895CF9341
:10306000DF9390E0FC01EE53FF4F2491FC01E25509
:10307000FF4F8491882361F190E0880F991FFC0134
:10308000E656FF4FC591D491FC01EC55FF4FA59139
:10309000B491611109C09FB7F8948881209582236B
:1030A0008883EC912E230BC0623061F49FB7F894B3
:1030B0008881322F309583238883EC912E2B2C939B
:1030C0009FBF06C08FB7F894E8812E2B28838FBF4F
:1030D000DF91CF9108958E3008F08E508770806414
:1030E00080937C0080917A00806480937A00809144
:1030F0007A0086FDFCCF809178002091790090E0E5
:10310000922B08958F929F92AF92BF92CF92DF92AF
:10311000EF92FF926B017C010E9419174B015C0139
:10312000C114D104E104F104F1F00E941917DC018B
:10313000CB0188199909AA09BB09883E9340A105CA
:10314000B10570F321E0C21AD108E108F10888EE58
:10315000880E83E0981EA11CB11CC114D104E104A7
:10316000F10419F7DDCFFF90EF90DF90CF90BF9083
:10317000AF909F908F9008952FB7F894609121079A
:103180007091220780912307909124072FBF089503
:103190001F920F920FB60F9211242F933F938F938C
:1031A0009F93AF93BF938091210790912207A091A5
:1031B0002307B09124073091200723E0230F2D37F8
:1031C00020F40196A11DB11D05C026E8230F02962B
:1031D000A11DB11D20932007809321079093220702
:1031E000A0932307B0932407809125079091260789
:1031F000A0912707B09128070196A11DB11D8093CA
:10320000250790932607A0932707B0932807BF911F
:10321000AF919F918F913F912F910F900FBE0F9083
:103220001F901895CF92DF92EF92FF920F931F930A
:10323000CF93DF938C016091760370917703615097
:10324000784EC12C98E1D92EE6E7F3E020E0C0E00B
:10325000D0E045E03481332349F0439FC00111247D
:103260008A589C4FDC018D919C9101C0CB01E0807C
:10327000F1808E199F090280F381E02D8E1B9F0B38
:103280008017910739F4B5E02B9FE0011124CA584B
:10329000DC4F45C00817190748F48C159D0530F41C
:1032A000429FE0011124CA58DC4F6C01311107C064
:1032B0002097A9F5C6E7D3E085E0D82E1AC0439F32
:1032C000F0011124EA58FC4F232FC4CFE20EF31E65
:1032D000D89EE0011124CA58DC4F68817981E61636
:1032E000F70639F04A815B81C7010E94CB1AF98247
:1032F000E8828C81E880F9802A813B818111E6CFC8
:1033000080917603909177038E199F09821B930B0E
:103310008150984E8017910710F480E019C0EBE7B8
:10332000F3E081E022813381232B29F035968F5FF2
:103330008533C1F7F2CF488159812A813B81240F1F
:10334000351F31832083138302839C8194838C8374
:10335000DF91CF911F910F91FF90EF90DF90CF9071
:1033600008958823E9F0A6E7B3E025E014969C9140
:10337000149789130DC095E0899FF0011124EA5834
:10338000FC4F848114968C931382128214820895C8
:10339000992331F0299FD0011124AA58BC4FE6CFC0
:1033A00008950F931F93CF93DF938C01EB0160E09F
:1033B0008AE00E94E2178AE38EBD0DB407FEFDCFBE
:1033C0000C0F1D1FC017D10739F01EBC0DB407FE2E
:1033D000FDCF8EB58993F6CF61E08AE0DF91CF9182
:1033E0001F910F910C94E2171F93CF93DF93C82F77
:1033F000D62F142F60E08AE00E94E217DF71CD2BF8
:10340000CEBD0DB407FEFDCF1EBD0DB407FEFDCF32
:1034100061E08AE0DF91CF911F910C94E2171F9336
:10342000CF93DF93182F1076C12FD0E08091000149
:1034300090E0C817D90789F043E06FE180EA0E9465
:10344000F419AE0185E0559547958A95E1F76FE14E
:1034500080E80E94F41910930001DF91CF911F9131
:1034600008951F93CF93DF93C82F162FD72F0E9455
:103470000F1A412F6C2F80E40E94F41961E06C0F49
:103480004D2F80E4DF91CF911F910C94F419CF93CD
:10349000DF93C82FD62F0E940F1A4D2F6C2F80E478
:1034A000DF91CF910C94F419CF93DF93C82FD62FCF
:1034B00060E08AE00E94E2178D2F8F71C82BCEBD8D
:1034C0000DB407FEFDCF1EBC0DB407FEFDCFD7FD2A
:1034D00008C061E08AE00E94E2178EB5DF91CF91CB
:1034E00008951EBC0DB407FEFDCFF3CFCF93C82FB8
:1034F0000E940F1A6C2F80E0CF910C94541ACF9336
:10350000DF93EB01682F84ED0E94471ABE0186ED20
:103510000E94311ACFE0D0E08AEE0E94761A80FF36
:1035200008C06AE070E080E090E00E948218219775
:1035300099F7DF91CF910895CF93C62FBC0182E018
:103540000E94311A60E08AE00E94E2178AE78EBD8D
:103550000DB407FEFDCFCEBD0DB407FEFDCF61E07B
:103560008AE0CF910C94E217BC0180E00E94311AEE
:1035700060E08AE00E94E2178AE38EBD0DB407FE88
:10358000FDCF1EBC0DB407FEFDCF61E08AE00E94B6
:10359000E2178EB50895CF92DF92EF92FF920F93CC
:1035A0001F93CF93DF936C018B014130510579F468
:1035B000CB010E94B41A682FC601DF91CF911F91F1
:1035C0000F91FF90EF90DF90CF900C949C1AEA013E
:1035D000C60FD71F7E0181E0E81AF10880E10E9442
:1035E000311AB60184E10E94311A0115184048F4DD
:1035F000E11488E0F80628F07E0181E0E81A88E00E
:10360000F80AB70182E10E94311A40E16FE180EAD5
:103610000E94F41940E26FE180E80E94F4196FE122
:1036200080E00E94541A85FF07C061E070E080E0EE
:1036300090E00E948218F3CFDF91CF911F910F91FC
:10364000FF90EF90DF90CF9008950F931F93DB01D1
:10365000E42FA80190E0EF3FE9F065E0E69FF0017C
:103660001124EA58FC4F02C0E2E8F4E06081718165
:10367000620F731F25E0289FF001299FF00D112490
:10368000EA58FC4F808191818A0F9B1F1F910F91F7
:103690000C94CB1A6091820470918304620F731FA3
:1036A0006115E8E07E0700F36F5F7740E3CFCF92CC
:1036B000DF92EF92FF920F931F93CF93DF936B01F3
:1036C0008A01790125E0829FC0011124EC01CA58CA
:1036D000DC4F688179816C0D7D1D82E00E94311A7A
:1036E0000A80DB81C02DCC19DD09EC16FD0608F43B
:1036F000E70160E08AE00E94E2178AE78EBD0DB420
:1037000007FEFDCFC8018C0F9D1F0817190741F058
:10371000F80121918F012EBD0DB407FEFDCFF5CF2D
:1037200061E08AE00E94E217CE01DF91CF911F9104
:103730000F91FF90EF90DF90CF900895EF92FF925E
:103740000F931F93CF93DF938B017A018F3FC9F0C3
:1037500095E0899FE0011124CA58DC4F02C0C2E8FD
:10376000D4E068817981600F711F80E00E94311A76
:103770008A819B81801B910BE816F90688F4C701AA
:103780000FC06091820470918304600F711F6115F6
:1037900088E0780720F36F5F7740C2E8D4E0E5CF98
:1037A000DF91CF911F910F91FF90EF9008958823A3
:1037B000A1F090917F04992381F08F3F29F48091AB
:1037C000840490918504089595E0899FF001112467
:1037D000EA58FC4F82819381089580E090E008953B
:1037E0000F931F93CF93DF93FC0110928E0590E00F
:1037F0008BE0983009F1899FD0011124ED01CA5C5A
:10380000DA4F4881598141155105A1F02A813B8148
:103810002115310579F0008111814017510751F4CC
:10382000428153812417350729F490938E05A65CB5
:10383000BA4F28C09F5FDDCF90E08BE0983091F0C9
:10384000899FE0011124CA5CDA4F28813981232B3A
:1038500039F42A813B81232B19F490938E050AC0F9
:103860009F5FECCF109296071092950710928E05ED
:10387000C6E3D5E084E0DE0101900D928A95E1F780
:10388000DE01149686E0FB0101900D928A95E1F726
:103890001A86DF91CF911F910F9108950F931F9377
:1038A000CF93DF9300D000D000D0CDB7DEB78091AA
:1038B0004F07909150078F3F2FEF920759F42091B7
:1038C0005107309152072F3F3F4F21F486E0E2E845
:1038D000F2E0EAC020917203309173032827392760
:1038E00040916A0350916B0324233523232B91F4D9
:1038F00060915107709152072091740330917503C4
:103900002627372740916C0350916D0324233523DC
:10391000232B89F080916E0390916F039093980709
:1039200080939707809170039091710390939A0709
:103930008093990708C09093980780939707709396
:103940009A07609399070091970710919807409103
:10395000990750919A0780E09BE0883039F1282F31
:1039600030E0929FF001939FF00D1124EA5CFA4F32
:103970006081718106171707B9F462817381461758
:10398000570791F46481611184C06581611181C020
:10399000668161117EC0678161117BC060856111A4
:1039A00078C06185611175C08F5FD7CF80938E0518
:1039B00046E050E06FEF70E081E397E00E94E12C79
:1039C00086E0E1E5F7E0DF01282F1D922A95E9F76F
:1039D000EFE8F5E0A7E3B7E0982F01900D929A95F4
:1039E000E1F7EFE8F5E0A7E4B7E0982F01900D923A
:1039F0009A95E1F71093580700935707209199077C
:103A000030919A0730935A072093590720917203F7
:103A10003091730330934E0720934D072091740328
:103A2000309175033093500720934F0720E031E029
:103A300030934607209345073093400720933F0774
:103A400028E030E0309342072093410780934307FA
:103A500094E09093440728E036E030933E072093AB
:103A60003D0727E637E03093300720932F072AE2FF
:103A700030E030932E0720932D07BE016F5F7F4FFC
:103A8000DB011D928A95E9F787E997E00E94F01B18
:103A900029C080938E058BE0829FF001839FF00DFB
:103AA0001124E65CFA4F86E0A1E3B7E001900D92A5
:103AB0008A95E1F786E0EFE8F5E0A7E3B7E001904B
:103AC0000D928A95E1F788E090E090933E0780930D
:103AD0003D0780912D0790912E070E9690932E070B
:103AE00080932D0726960FB6F894DEBF0FBECDBF8C
:103AF000DF91CF911F910F9108959C01AB017093BD
:103B00002C0760932B071616170654F4809129078B
:103B100090912A078217930719F0B9010C94D82CB9
:103B200008950895CF92DF92EF92FF920F931F9323
:103B3000CF93DF936C017A018B01C0E0D0E0CE150A
:103B4000DF0581F0D8016D918D01D601ED91FC91D9
:103B50000190F081E02DC6010995892B11F0219685
:103B6000EECF7E01C701DF91CF911F910F91FF90A2
:103B7000EF90DF90CF9008950F931F93CF93DF9333
:103B8000EC0188819981009729F02A813B812617D1
:103B9000370788F48B016F5F7F4F0E940D2C0097D1
:103BA00061F0998388831B830A832C813D81232BB9
:103BB00011F4FC01108281E001C080E0DF91CF911F
:103BC0001F910F910895FC014481558180918D06CC
:103BD00090918E068417950780F0809189069091C8
:103BE0008A06009751F0608171816115710529F095
:103BF0000E94EF2C21E0892B09F020E0822F08950C
:103C00000F931F93CF93DF93C0919306D0919406A7
:103C1000209719F4FC01108211C0615071096C17D2
:103C20007D0708F4EB018C0160918F06709190067E
:103C3000AE010E94FD2CC00FD11F1882DF91CF91E1
:103C40001F910F910895CF93DF93EC0188819981A3
:103C5000009711F00E94842B198218821D821C8209
:103C60001B821A82DF91CF910895EF92FF920F93FA
:103C70001F93CF93DF93EC017B018A01BA010E946D
:103C8000BC1D811104C0CE010E94231E07C01D83EC
:103C90000C83B701888199810E94E82CCE01DF91C5
:103CA000CF911F910F91FF90EF900895FC01118229
:103CB00010821382128215821482F6E089389F07DF
:103CC00069F06091890670918A066115710531F07D
:103CD00040918D0650918E060C94351E0895CF9319
:103CE000DF93EC018091890690918A06009739F064
:103CF0006881798161157105C9F40E94842B8881DE
:103D0000998190938A06809389068A819B819093FA
:103D10008C0680938B068C819D8190938E06809378
:103D20008D06198218821B821A8211C040918B065F
:103D300050918C062C813D8142175307F0F20E946E
:103D4000E82C8C819D8190938E0680938D061D8238
:103D50001C82DF91CF910895EF92FF920F931F93F2
:103D6000CF93DF936115710511F480E01CC04115FC
:103D70005105C1F07B01EC018C819D818A01080F06
:103D8000191FB801CE010E94BC1D882371F3288140
:103D900039818C819D81B701820F931F0E94E82C8D
:103DA0001D830C8381E0DF91CF911F910F91FF90D4
:103DB000EF900895EF92FF920F931F93CF93DF93AD
:103DC000CDB7DEB728970FB6F894DEBF0FBECDBFD4
:103DD0007C01CB014AE08E010F5F1F4FB8010E94AA
:103DE0000028F80101900020E9F73197AF01401B4E
:103DF000510BB801C7010E94AC1E811103C0C7015D
:103E00000E94231EC70128960FB6F894DEBF0FBE8E
:103E1000CDBFDF91CF911F910F91FF90EF9008954B
:103E20000F931F93CF93DF9300D0CDB7DEB78C01F4
:103E300069831A8241E050E0BE016F5F7F4F0E94AC
:103E4000AC1E811103C0C8010E94231EC8010F903F
:103E50000F90DF91CF911F910F910895CF93DF9332
:103E6000EC016115710559F0FB0101900020E9F7A3
:103E70003197AF01461B570B0E94351E02C00E94AE
:103E8000231ECE01DF91CF910895FC0180819181A5
:103E90000C94842BFC0111821082138212821582F1
:103EA00014826115710551F0FB0101900020E9F7C2
:103EB0003197AF01461B570B0C94351E0895CF92D6
:103EC000DF92EF92FF920F931F93CF93DF936C01DA
:103ED0008B017A014617570720F4812F8A01E62EBD
:103EE000F82E6FEA72E0C6010E944A1FC0918D064B
:103EF000D0918E060C171D07E0F4EC16FD0608F4B1
:103F0000E701E0918906F0918A06EC0FFD1FF08031
:103F100010826091890670918A06600F711FC60138
:103F20000E942E1F8091890690918A06C80FD91F82
:103F3000F882C601DF91CF911F910F91FF90EF9012
:103F4000DF90CF9008956115710579F0FB01019024
:103F50000020E9F73197AF01461B570BDC01ED91CB
:103F6000FC910280F381E02D099480E090E00895B7
:103F70008F929F92AF92BF92EF92FF920F931F93F7
:103F8000CF93DF93CDB7DEB7A1970FB6F894DEBF1E
:103F90000FBECDBF7C01FA01CB0119A2223008F47B
:103FA0002AE08E010F5D1F4F822E912CA12CB12C87
:103FB000BF01A50194010E946E29F901CA010150B7
:103FC00011096A3014F4605D01C0695CD8016C931A
:103FD000232B242B252B61F7B801C7010E94A31FB7
:103FE000A1960FB6F894DEBF0FBECDBFDF91CF9183
:103FF0001F910F91FF90EF90BF90AF909F908F9087
:10400000089589E896E00E94451F8FE896E00C9499
:10401000451FCF93DF93CDB7DEB76E970FB6F894F9
:10402000DEBF0FBECDBF789484B5826084BD84B5F9
:10403000816084BD85B5826085BD85B5816085BDA3
:1040400080916E00816080936E001092810080915B
:1040500081008260809381008091810081608093E3
:104060008100809180008160809380008091B10008
:1040700084608093B1008091B00081608093B00033
:1040800080917A00846080937A0080917A008260C7
:1040900080937A0080917A00816080937A00809189
:1040A0007A00806880937A001092C100109279069D
:1040B00010927A0610927B0610927C0610923906B6
:1040C00010923A0610923B0610923C060E94BC18D1
:1040D0006B017C014B015C0188EB880E8BE0981E24
:1040E000A11CB11C0E94BC186C157D058E059F0596
:1040F00028F086169706A806B906A0F768EE73E0C2
:1041000080E090E00E9482180E94F2120E94BC1887
:104110006093390670933A0680933B0690933C0671
:1041200088E892E00E9413150E94BC186B017C0184
:104130004B015C019AE0890E911CA11CB11C0E94EC
:10414000BC186C157D058E059F0528F08616970610
:10415000A806B906A0F781E080934D0696E0EFE24D
:10416000F1E0DE01559601900D929A95E1F72AE76C
:1041700032E03A83298390EC9B8398EA9C838D8379
:1041800082E38E83BE016F5F7F4FCE0145960E9412
:104190001A130E94F21261E089E00E942F1861E078
:1041A00088E00E942F1861E087E00E942F1861E0EC
:1041B00086E00E942F1861E085E00E942F1858ECDD
:1041C000252E312C0E94BC18672B682B692B41F4DB
:1041D0000E94BC18623071058105910508F4F3C096
:1041E0000E94BC1800915103109152032091530377
:1041F00030915403601771078207930740F460936E
:10420000510370935203809353039093540300918E
:1042100051031091520320915303309154036B01C9
:104220007C01C01AD10AE20AF30A970186010A3F0B
:1042300011052105310508F4C6C060935103709340
:104240005203809353039093540384EF91E0A0E0D2
:10425000B0E08093450690934606A0934706B0933E
:1042600048061092490610924A0610924B06109288
:104270004C0680913D0690913E06A0913F06B0917C
:1042800040068093410690934206A0934306B09364
:1042900044060E94BC1860933D0670933E068093CE
:1042A0003F06909340060E94BC18609339067093B5
:1042B0003A0680933B0690933C060E94BC186B0123
:1042C0007C0189E992E00E9413152AE041E050E068
:1042D00060E070E08AE995E00E94B81F80EA92E011
:1042E0000E9413152AE0B701A6018AE995E00E9411
:1042F000B81F82EA92E00E94131580913D069091CA
:104300003E06A0913F06B0914006B701A601481BAA
:10431000590B6A0B7B0B2AE08AE995E00E94B81FD3
:1043200082EA92E00E94131540913D0650913E06AC
:1043300060913F067091400680914106909142063F
:10434000A0914306B0914406481B590B6A0B7B0BA6
:104350002AE08AE995E00E94B81F84EA92E00E9470
:1043600013150E94BC18AB01BC012AE08AE995E054
:104370000E94B81F66EA72E08AE995E00E94A31FD6
:104380006DEA72E08AE995E00E94A31F0E94BC18C2
:104390004B015C016B017C0195E0C90ED11CE11C55
:1043A000F11C0E94BC18681579058A059B0508F068
:1043B0004BC40E94BC1860933D0670933E068093E8
:1043C0003F06909340068EE00E946B189093500336
:1043D00080934F038FE00E946B18BC01990F880BEC
:1043E000990B0E9451289B01AC0160E070EC8FE7B3
:1043F00094E40E94C72920E030EC4FE754E40E9487
:10440000342A20E030E048EC52E40E94B028609367
:104410004B0370934C0380934D0390934E0380E1C4
:104420000E946B18BC01990F880B990B0E945128B0
:104430006B017C0120E030E0A9010E944A2888231A
:1044400009F434C1A701960160E070EC8FE794E4B1
:104450000E94342A20E030E040E85FE30E94C72950
:104460009B01AC0160E070E48CE196E40E94342A88
:104470006B8F7C8F8D8F9E8F23EB37E242EA58E45F
:104480000E94DC2A87FF16C128EB3EE549EA53E487
:104490006B8D7C8D8D8D9E8D0E944A2818160CF098
:1044A0000EC12B8D3C8D4D8D5E8D63EB77E282EAE4
:1044B00098E40E94C7296B017C0120E030E0A9014B
:1044C0000E94DC2A181624F0F7FAF094F7F8F0941A
:1044D00045E3A42E41E0B42E812C912C01E010E0A4
:1044E0002B8D3C8D4D8D5E8DD5011C966D917D91F2
:1044F0008D919C911F970E94C7292B013C0120E0C0
:1045000030E0A9010E94DC2A181624F077FA709492
:1045100077F87094A7019601C301B2010E944A285E
:1045200087FF03C07301620148010F5F1F4FB8E0AE
:10453000AB0EB11C0232110599F6840133E0000F75
:10454000111F3A95E1F70B5C1E4FF801C480D5802E
:10455000E680F780A70196016B8D7C8D8D8D9E8DF9
:104560000E944A2887FF16C0F80180819181A281AC
:10457000B3818093300390933103A0933203B093BF
:104580003303F40123E0EE0FFF1F2A95E1F7E35C0C
:10459000FE4F1FC0A70196016B8D7C8D8D8D9E8D6A
:1045A0000E94DC2A1816ACF5F80180819181A28165
:1045B000B3818093300390933103A0933203B0937F
:1045C0003303F40193E0EE0FFF1F9A95E1F7E35DEB
:1045D000FE4F80819181A281B38180932C039093BF
:1045E0002D03A0932E03B0932F03C0922803D092E3
:1045F0002903E0922A03F0922B0384819581A681FE
:10460000B7818093240390932503A0932603B0934E
:1046100027038090240390902503A0902603B09058
:104620002703409028035090290360902A0370903C
:104630002B03A3019201C501B4010E94C7296B019C
:104640007C012B8D3C8D4D8D5E8DC501B4010E948A
:10465000C729A70196010E94342A20913003309186
:10466000310340913203509133030E94B0284B0133
:104670005C01A30192016B8D7C8D8D8D9E8D0E94BE
:10468000C729A70196010E94342A20912C0330915A
:104690002D0340912E0350912F030E94B0289B01BF
:1046A000AC01C501B4010E94C8290DC060E070E0F2
:1046B000CB0109C060E070E080E292EC04C060E0F1
:1046C00070E08AEF92E4609347037093480380930D
:1046D000490390934A0384E10E946B189093460328
:1046E000809345036AE07AE185E996E00E944E01F5
:1046F00085E996E00E948705009709F458C207975C
:104700000CF055C247E050E06EE373E085E996E0B7
:104710000E94FE006EE373E089E896E00E942E1F7F
:1047200060EB72E0CE0101960E944A1FCE01019615
:104730000E94E31D182FCE0101960E94451F1123F0
:1047400009F45FC080918D0690918E06039780F0EA
:1047500042E050E060E070E0CE0101960E945F1FF1
:10476000CE0101960E946F1ECE0101960E94451F48
:1047700063EB72E0CE0145960E944A1FCE0101967E
:104780000E94561E498D5A8D6D897E89CE010196F3
:104790000E94AC1E811104C0CE0101960E94231E0E
:1047A0004D815E8169817A818FE896E00E94AC1E1E
:1047B000CE0101960E94451F64E170E0CE01019692
:1047C0000E94001ECE0101960E941315CE01019693
:1047D0000E94410A6FEA72E08FE896E00E942E1F65
:1047E0006FEA72E089E896E00E942E1F61E070E0B7
:1047F00080E090E00E948218CE0145960E94451FFD
:10480000D2C16AEB72E0CE0101960E944A1FCE012E
:1048100001960E94E31D182FCE0101960E94451FAC
:10482000112309F476C044E050E062E070E0CE016C
:1048300001960E945F1F89819A81009719F00E945A
:10484000D92703C060E070E0CB018B01CE01019657
:104850000E94451F46E050E064E070E0CE01019602
:104860000E945F1F89819A81009721F00E94D927B9
:10487000D62E02C0D12C70E0ED2CF72ECE01019681
:104880000E94451F02301105A1F04CF401151105DD
:10489000C9F001301105C1F408E010E015C0043082
:1048A000110569F04CF00530110571F404E010E0D9
:1048B0000BC007E010E008C006E010E005C005E00E
:1048C00010E002C009E010E0E114F10429F46D2DBC
:1048D000802F0E94E2170EC0EA94EF2859F46D2D44
:1048E000802F0E94E2170630110521F4CC24C394D6
:1048F000C0923D038DEB92E00E94410A6FEA72E0A4
:1049000089E896E00E942E1F6FEA72E08FE896E039
:1049100042C160EC72E0CE0101960E944A1FCE01B6
:1049200001960E94E31D8823D1F020918D063091DD
:104930008E062330310540F0E0918906F0918A0619
:10494000309711F0828101C080E0082E000C990B95
:10495000C0970A9720F411E02330310508F010E0E9
:10496000CE0101960E94451F112309F445C043E082
:1049700050E062E070E0CE0101960E945F1F8981E5
:104980009A81009729F00E94D9276B017C0103C00E
:10499000C12CD12C7601CE0101960E94451FCD2855
:1049A000CE28CF2809F0EDC001E010E080914F0340
:1049B000909150030B9714F400E010E0CE010196A3
:1049C0000E94561E6AE3CE0101960E94101FB80194
:1049D0000E94DA1EDC0114964D915C9115976D9141
:1049E0007C918FE896E00E94AC1ECE0101960E9459
:1049F000451F6AE070E08EC063EC72E0CE01019664
:104A00000E944A1FCE0101960E94E31D182FCE017D
:104A100001960E94451F112309F483C080918D06E1
:104A200090918E06049780F043E050E060E070E0E3
:104A3000CE0101960E945F1FCE0101960E946F1E5B
:104A4000CE0101960E94451FEE24E394F12C809143
:104A50004F03909150030B9714F4E12CF12C01E0DB
:104A600010E080914503909146030B9714F400E009
:104A700010E0609147037091480380914903909141
:104A80004A030E94A62A4B015C0160914B0370917E
:104A90004C0380914D0390914E030E94A62A2B0156
:104AA0003C01CE0101960E94561E6AE3CE0101969A
:104AB0000E94101FB7010E94DA1E6AE30E94101FB5
:104AC000B2010E94DA1E6AE30E94101FB4010E9424
:104AD000DA1E6AE30E94101F6DE20E94101F6AE353
:104AE0000E94101FB8010E94DA1E6AE30E94101F84
:104AF0006DE20E94101FFC0144815581608171812B
:104B00008FE896E00E94AC1ECE0101960E94451FE0
:104B100064E170E0CE0101960E94001ECE01019674
:104B20002EC067EC72E0CE0101960E944A1FCE01B2
:104B300001960E94E31D182FCE0101960E94451F89
:104B4000112321F0F1E0F0933C0317C06AEC72E00E
:104B5000CE0101960E944A1FCE0101960E94E31DDC
:104B6000182FCE0101960E94451F1123E1F01092EB
:104B70003C0310923B0310923D038DEB92E00E94A8
:104B8000410A6FEA72E08FE896E00E942E1F6FEAFA
:104B900072E089E896E00E942E1F61E070E080E0FC
:104BA00090E00E94821885E996E00E94740180914D
:104BB0003C038823C1F080914F03909150030B97E1
:104BC00034F480914503909146030B9764F08091F3
:104BD0003B03811108C030923A0320923903CC2460
:104BE000C394C0923B03D0903B03DD2009F45FC027
:104BF0000091390310913A031016110664F561E033
:104C000086E00E94E21780913703909138031816CE
:104C100019063CF480913503909136031816190655
:104C200034F065E070E080E090E00E94821801506E
:104C3000110910933A0300933903012B61F4309268
:104C400036032092350307C0C616D706E806F906D4
:104C500008F0A7CBAECB00913503109136031016A8
:104C600011066CF560E086E00E94E2178091370340
:104C700090913803181619063CF4809139039091ED
:104C80003A031816190634F065E070E080E090E011
:104C90000E948218015011091093360300933503C6
:104CA000012B69F430923A032092390308C08091B5
:104CB0003D03811104C060E086E00E94E217E090AD
:104CC0004F03F09050038BE0E816F1044CF091E0B4
:104CD00090933403A0EDB7E0B0933803A09337036B
:104CE00000913703109138031016110694F461E017
:104CF00087E00E94E217D11006C065E070E080E016
:104D000090E00E948218015011091093380300931B
:104D1000370380913403882361F0809137039091A9
:104D20003803892B31F41092340360E087E00E944D
:104D3000E21780904B0390904C03A0904D03B090ED
:104D40004E0320E030E040EA51E4C501B4010E9486
:104D50004A2887FF11C020E030E0A901C501B40155
:104D60000E94DC2A181644F4BBE0EB16F10424F090
:104D700061E088E00E94E2178DEC92E00E9413153A
:104D800060914703709148038091490390914A03D1
:104D90000E94671580E990E00E94181580914503F4
:104DA000909146030E94331584E890E00E94181504
:104DB00060914B0370914C0380914D0390914E0391
:104DC0000E9467158BE790E00E94181580914F03B1
:104DD000909150030E94331588E790E00E941815C7
:104DE0000E940F17EFC9FC012381260F2093630354
:104DF000A72FBB2792819A0F909362033181309342
:104E00006103408140936003E92FF0E0EA17FB075C
:104E100048F481E0830F80936103811103C04F5FE9
:104E20004093600330E077272617370788F49F5FA9
:104E30009093620391110CC0809161038F5F809306
:104E40006103811105C0809160038F5F80936003CF
:104E50000895CF93DF93C0915C03D0915D03BC01B3
:104E6000CE0108960E94F326E0E6F3E08081888771
:104E70008181898782818A8783818B87DF91CF9126
:104E80000895CF93DF93EAE9F5E01382128288EE6A
:104E900093E0A0E0B0E084839583A683B78388E69F
:104EA00092E09183808385EC90E09587848784EC01
:104EB00090E09787868780EC90E0918B808B81ECE7
:104EC00090E0938B828B82EC90E0958B848B86ECC8
:104ED00090E0978B868B118E128E138E148EE7E3E3
:104EE000F6E01682178210861186128613861486C3
:104EF000158616861786108A118A128A138A148AD2
:104F0000158AE9EAF6E0CAE7D2E0D183C0831282CB
:104F1000138214821582EFEAF6E0D183C0831282F5
:104F2000138214821582E8E0F7E0D183C0831282F5
:104F3000138214821582EDE7F6E0D183C0831282DA
:104F400013821482158284EF96E00E949601EEE0AF
:104F5000F7E0D183C0831282138214821582E3E8C2
:104F6000F6E0D183C0831282138214821582E4E1B9
:104F7000F7E0D183C0831282138214821582EAE1A2
:104F8000F7E0D183C083128213821482158285E9EF
:104F900096E00E9496016FEA72E08FE896E00E9428
:104FA0004A1F6FEA72E089E896E0DF91CF910C9496
:104FB0004A1F1F93FC0199278827BC01E89411918F
:104FC0001032E9F3193010F01E30C8F31B3251F0E3
:104FD0001D3249F4689406C00E940B28610F711DB0
:104FE000811D911D119110531A30B0F33EF490952C
:104FF0008095709561957F4F8F4F9F4F1F910895BA
:10500000BB274A3031F4992322F4BDE29095819573
:105010009F4F0C942128592F482F372F262F660F8A
:10502000771F881F991F660F771F881F991F620FB0
:10503000731F841F951F660F771F881F991F089580
:10504000BB27FB015527AA27880F991FAA1FA41762
:1050500010F0A41B83955051B9F7A05DAA3308F056
:10506000A95DA193009779F7B111B1931192CB018A
:105070000C943A28DC01FC01672F71917723E1F74A
:10508000329704C07C916D9370836291AE17BF0715
:10509000C8F308950E948C2808F481E00895E894EC
:1050A00009C097FB3EF490958095709561957F4F70
:1050B0008F4F9F4F9923A9F0F92F96E9BB2793951E
:1050C000F695879577956795B795F111F8CFFAF42E
:1050D000BB0F11F460FF1BC06F5F7F4F8F4F9F4F5F
:1050E00016C0882311F096E911C0772321F09EE8BD
:1050F000872F762F05C0662371F096E8862F70E023
:1051000060E02AF09A95660F771F881FDAF7880FFC
:105110009695879597F90895990F0008550FAA0B52
:10512000E0E8FEEF16161706E807F907C0F01216BA
:105130001306E407F50798F0621B730B840B950BBD
:1051400039F40A2661F0232B242B252B21F4089512
:105150000A2609F4A140A6958FEF811D811D0895AF
:105160000E94C3280C9434290E94262938F00E94FA
:105170002D2920F0952311F00C941D290C9423293E
:1051800011240C9468290E94452970F3959FC1F35E
:10519000950F50E0551F629FF001729FBB27F00DE5
:1051A000B11D639FAA27F00DB11DAA1F649F66273A
:1051B000B00DA11D661F829F2227B00DA11D621F89
:1051C000739FB00DA11D621F839FA00D611D221F43
:1051D000749F3327A00D611D231F849F600D211D27
:1051E000822F762F6A2F11249F5750409AF0F1F0AA
:1051F00088234AF0EE0FFF1FBB1F661F771F881F13
:1052000091505040A9F79E3F510580F00C941D2904
:105210000C9468295F3FE4F3983ED4F38695779524
:105220006795B795F795E7959F5FC1F7FE2B880FB8
:10523000911D9695879597F9089597F99F6780E84E
:1052400070E060E008959FEF80EC089500240A94D8
:105250001616170618060906089500240A94121651
:105260001306140605060895092E0394000C11F484
:10527000882352F0BB0F40F4BF2B11F460FF04C031
:105280006F5F7F4F8F4F9F4F089557FD9058440F8A
:10529000551F59F05F3F71F04795880F97FB991F95
:1052A00061F09F3F79F08795089512161306140652
:1052B000551FF2CF4695F1DF08C0161617061806DF
:1052C000991FF1CF86957105610508940895E894BA
:1052D000BB2766277727CB0197F90895A1E21A2EFD
:1052E000AA1BBB1BFD010DC0AA1FBB1FEE1FFF1F8A
:1052F000A217B307E407F50720F0A21BB30BE40BDA
:10530000F50B661F771F881F991F1A9469F7609520
:105310007095809590959B01AC01BD01CF010895DA
:105320002F923F924F925F926F927F928F929F92B5
:10533000AF92BF92CF92DF92EF92FF920F931F93A3
:10534000CF93DF93CDB7DEB7CA1BDB0B0FB6F89454
:10535000DEBF0FBECDBF09942A88398848885F8494
:105360006E847D848C849B84AA84B984C884DF8005
:10537000EE80FD800C811B81AA81B981CE0FD11DE9
:105380000FB6F894DEBF0FBECDBFED0108955058A3
:10539000BB27AA270E94DF290C9434290E942629C2
:1053A00038F00E942D2920F039F49F3F19F426F49B
:1053B0000C9423290EF4E095E7FB0C941D29E92FAA
:1053C0000E94452958F3BA176207730784079507A7
:1053D00020F079F4A6F50C9467290EF4E0950B2ED5
:1053E000BA2FA02D0B01B90190010C01CA01A00137
:1053F0001124FF27591B99F0593F50F4503E68F192
:105400001A16F040A22F232F342F4427585FF3CFD2
:10541000469537952795A795F0405395C9F77EF4A3
:105420001F16BA0B620B730B840BBAF09150A1F0EC
:10543000FF0FBB1F661F771F881FC2F70EC0BA0F72
:10544000621F731F841F48F4879577956795B795FA
:10545000F7959E3F08F0B0CF9395880F08F09927F5
:10546000EE0F9795879508950E94482A0C94342949
:105470000E942D2958F00E94262940F029F45F3F10
:1054800029F00C941D2951110C9468290C9423299E
:105490000E94452968F39923B1F3552391F3951B95
:1054A000550BBB27AA2762177307840738F09F5F45
:1054B0005F4F220F331F441FAA1FA9F335D00E2EB2
:1054C0003AF0E0E832D091505040E695001CCAF71F
:1054D0002BD0FE2F29D0660F771F881FBB1F2617E2
:1054E00037074807AB07B0E809F0BB0B802DBF01B9
:1054F000FF2793585F4F3AF09E3F510578F00C9488
:105500001D290C9468295F3FE4F3983ED4F38695F7
:1055100077956795B795F7959F5FC9F7880F911DA8
:105520009695879597F90895E1E0660F771F881F94
:10553000BB1F621773078407BA0720F0621B730B47
:10554000840BBA0BEE1F88F7E09508950E94AD2AF0
:105550006894B1110C94682908950E944D2988F02F
:105560009F5798F0B92F9927B751B0F0E1F0660F27
:10557000771F881F991F1AF0BA95C9F714C0B13068
:1055800091F00E946729B1E008950C946729672F74
:10559000782F8827B85F39F0B93FCCF38695779597
:1055A0006795B395D9F73EF4909580957095619580
:1055B0007F4F8F4F9F4F08950E948C2808F48FEFE4
:1055C00008950E948C28880B990B0895EE0FFF1FF9
:1055D0000590F491E02D09940F931F93CF93DF93DF
:1055E0008230910510F482E090E0E0919D07F09107
:1055F0009E0720E030E0A0E0B0E0309719F1408154
:1056000051810281138148175907C8F08417950703
:1056100069F4109731F012960C93129713961C931D
:1056200027C000939D0710939E0722C021153105C6
:1056300019F04217530718F49A01BD01EF01DF0179
:10564000F801DBCF21153105F9F0281B390B243087
:10565000310580F48A819B816115710521F0FB0180
:105660009383828304C090939E0780939D07FE01DD
:10567000329644C0FE01E20FF31F819391932250B2
:105680003109398328833AC020919B0730919C07C8
:10569000232B41F4209103013091040130939C07A6
:1056A00020939B07209101013091020121153105C2
:1056B00041F42DB73EB74091050150910601241BDE
:1056C000350BE0919B07F0919C07E217F307A0F4DC
:1056D0002E1B3F0B2817390778F0AC014E5F5F4F48
:1056E0002417350748F04E0F5F1F50939C074093D7
:1056F0009B078193919302C0E0E0F0E0CF01DF913E
:10570000CF911F910F910895CF93DF93009709F4E4
:1057100081C0FC01329713821282A0919D07B09143
:105720009E07109781F420813181820F931F209171
:105730009B0730919C072817390751F5F0939C0778
:10574000E0939B0767C0ED0120E030E0CE17DF0754
:1057500040F44A815B819E0141155105F1F0EA0157
:10576000F5CFD383C28340815181840F951FC81721
:10577000D90759F488819981840F951F02969183E6
:1057800080838A819B81938382832115310529F44B
:10579000F0939E07E0939D073DC0E901FB83EA83F8
:1057A00049915991C40FD51FEC17FD0761F4808111
:1057B0009181840F951F0296E901998388838281E4
:1057C00093819B838A83E0E0F0E012968D919C9117
:1057D0001397009719F0FD01DC01F7CF8D919C9193
:1057E00011979D012E5F3F4F820F931F20919B07C2
:1057F00030919C072817390769F4309729F41092E3
:105800009E0710929D0702C013821282B0939C07DC
:10581000A0939B07DF91CF910895A0E0B0E0E3E172
:10582000FCE20C949429EC01009721F4CB010E9436
:10583000EC2AB4C0FC01E60FF71F9C01225031098D
:10584000E217F30708F4A8C0D9010D911C91119734
:1058500006171707B0F00530110508F49BC0C80102
:1058600004978617970708F495C002501109061B84
:10587000170B019311936D937C93CF010E94842B9E
:1058800089C05B01A01AB10A4C01800E911EA09143
:105890009D07B0919E07612C712CE12CF12C109783
:1058A00009F446C08D919C911197A815B905B1F5E1
:1058B0006C0142E0C40ED11CCA14DB0478F14C0127
:1058C0008A189B08640142E0C40ED11C1296BC9059
:1058D00012971396AC91B5E0CB16D10440F0B2828A
:1058E000A38391828082D9016D937C9309C00E5F5E
:1058F0001F4F800F911FF90191838083EB2DFA2FA9
:10590000E114F10431F0D7011396FC93EE93129752
:1059100041C0F0939E07E0939D073CC0681679064E
:1059200008F43C017D0112960D90BC91A02DB7CFDB
:1059300080919B0790919C0788169906E1F4661662
:105940007706C8F48091010190910201009741F41B
:105950008DB79EB74091050150910601841B950BB0
:10596000E817F907C8F4F0939C07E0939B07F90147
:10597000718360830FC0CB010E94EC2A7C010097E9
:1059800059F0A801BE010E94D82CCE010E94842BA0
:10599000C70104C0CE0102C080E090E0CDB7DEB701
:1059A000EEE00C94B02981E090E0F8940C940C2D7A
:1059B000FB01DC0102C001900D9241505040D8F72C
:1059C0000895DC0101C06D9341505040E0F7089507
:1059D000FB01DC0101900D920020E1F70895FB012D
:1059E000DC014150504030F08D910190801919F444
:1059F0000020B9F7881B990B0895FB01DC01415089
:105A0000504048F001900D920020C9F701C01D924E
:105A100041505040E0F7089510E0C6E7D0E004C0E0
:105A2000FE010E94E62A2196C737D107C9F7F894EC
:025A3000FFCFA6
:105A3200FF00009F07800000000000BE000501FB80
:105A420000440B7D05A100500B4E01D40074019758
:105A52000509061D0187053A05FE00B80AA80A01D4
:105A62000203040506000020C2B327A24800000C6E
:105A7200C2E6466A480000F0C1E6172B480000C89B
:105A8200C17383FC470000A0C11A33BC47000070F9
:105A9200C1339A8D47000020C1E60557470000A098
:105AA200C0F8AC2447000000006654FE460000A087
:105AB200401AF5C5460000204157409B4600007041
:105AC20041D74975460000A041F61E43460000C872
:105AD2004100401C460000F041A4D8FB4500000CE8
